:020000040800F2
:10000000200500200D010008150100081701000857
:10001000190100081B0100081D0100080000000074
:100020000000000000000000000000001F010008A8
:10003000210100080000000023010008250100083C
:1000400027010008270100082701000827010008F0
:1000500027010008270100082701000827010008E0
:1000600027010008270100082701000827010008D0
:1000700027010008270100082701000827010008C0
:1000800027010008270100082701000827010008B0
:1000900027010008270100082701000827010008A0
:1000A0002701000827010008270100082701000890
:1000B0002701000827010008270100082701000880
:1000C0002701000827010008270100082701000870
:1000D0002701000827010008270100082701000860
:1000E000270100082701000827010008DFF810D0C9
:1000F00000F01EF8004800474D0B0008AFF30080E9
:100100002005002080F308887047000006488047DB
:1001100006480047FEE7FEE7FEE7FEE7FEE7FEE7EC
:10012000FEE7FEE7FEE7FEE7FD090008ED00000838
:10013000064C074D06E0E06840F0010394E8070034
:1001400098471034AC42F6D3FFF7D4FFE40B000815
:10015000040C00080D48036841680D4802680D480A
:100160001840B0F1005F01D000207047074881427D
:1001700002D30748814201D30020F6E706488242B5
:1001800001D00020F1E70120EFE700000020000887
:10019000FCFF00080000FE2F315050410748C069A5
:1001A00040F0C0500549C8610548006840F48070BF
:1001B000034908600020034908807047001002408E
:1001C00000700040046C00400748C06940F0C05017
:1001D0000549C8610548006840F48070034908601B
:1001E0000348008870470000001002400070004083
:1001F000046C004070B504460D462A4621464FF671
:10020000FF7000F001F870BD70B513E011F8016BDC
:1002100080EA062000230BE0C0F3C0344FF6FF75E0
:1002200005EA400014B141F2210568405D1CABB203
:10023000082BF1D3151EA2F10106B2B2E6D170BDB2
:100240000C494FF0E02251610021916105211161BB
:1002500007E000BF4FF0E021096901F48031002977
:10026000F8D0011EA0F10100F3D14FF0E02211619E
:10027000704700003F1901002DE9FC4706460C4677
:1002800017464FF0000A082E7DD2DFE806F0040C76
:100290001B3C98C6AECC01206A490870002130464C
:1002A00000F0BCFACAE001206649087000F0D4F8FA
:1002B00008B9002000E0032082465146304600F095
:1002C000ADFABBE0062F04D20221304600F0A6FAB8
:1002D000B4E02078617840EA0120A17840EA01404A
:1002E000E17840EA0165381F82B2211D284600F0FE
:1002F00037F908B9002000E0032082465146304615
:1003000000F08CFA9AE0082F04D20221304600F067
:1003100085FA93E02078617840EA0120A17840EAEC
:100320000140E17840EA01652079617940EA0120E5
:10033000A17940EA0140E17940EA016842488542FA
:1003400004D305EB08004149884204D90221304614
:1003500000F064FA72E01FFA88F12846FFF74AFFBE
:1003600081465A208DF800008DF8016000208DF83C
:10037000020002208DF8030009F0FF008DF8040050
:100380004FEA292000E054E08DF805009DF80000B8
:1003900000F0B4FB9DF8010000F0B0FB9DF80200F6
:1003A00000F0ACFB9DF8030000F0A8FB9DF80400F2
:1003B00000F0A4FB9DF8050000F0A0FB3EE0FFF775
:1003C000C9FE20B90421304600F028FA36E00021A9
:1003D000304600F023FA1420FFF732FF00F01EF938
:1003E0000421304600F01AFA28E0FFF7D7FE00217A
:1003F000304600F013FA1420FFF722FF00BF144824
:10040000006800F4E06013490843001D10490860CB
:10041000BFF34F8F00BF00BFFEE7012009490870FE
:1004200000F01AFA0AE001200649087000F050FABC
:1004300004E00121304600F0F1F900BF00BFBDE843
:10044000FC870000000000200020000800000108D8
:100450000CED00E00000FA0570B50F4D00F054F807
:10046000284600F01DF820B100F044F84FF0FF30AE
:1004700070BD0A4C0AE0204600F012F820B100F0EE
:1004800039F84FF0FF30F3E704F58064AC42F2D363
:1004900000F030F80020EBE700FC00080020000826
:1004A00010B5044600F03CF810B14FF0FF3010BD1D
:1004B0000F48006940F002000D4908610846446198
:1004C000006940F04000086100F02AF840B1084897
:1004D000006920F00200064908614FF0FF30E6E7AE
:1004E0000348006920F00200014908610020DEE7AE
:1004F000002002400348006940F080000149086183
:100500007047000000200240024803494860034849
:10051000486070472301674500200240AB89EFCD5A
:100520000D4900E0491E0D48C06800F0010008B107
:100530000029F7D10948C06800F0140028B1142040
:10054000064AD0604FF0FF30704711B94FF0FF30CE
:10055000FAE70020F8E7000000350C000020024018
:100560002DE9F04105460F46164606F0010018B188
:100570004FF0FF30BDE8F0812548854201D1042EBF
:1005800009D02448854203D3A8192149884202D9B9
:100590004FF0FF30EEE7FFF7B7FF002432E0395DA0
:1005A000601C385C41EA0028FFF7BAFF20B1FFF772
:1005B000A1FF4FF0FF30DDE71748006940F0010070
:1005C0001549086125F80480FFF7AAFF50B11248C9
:1005D000006920F0010010490861FFF78BFF4FF020
:1005E000FF30C7E70C48006920F001000A490861A4
:1005F000285B404504D0FFF77DFF4FF0FF30B9E79F
:10060000A01C84B2B442CADBFFF774FF0020B1E73C
:10061000FCFF0008002000080020024070B50C48D4
:1006200006684468FFF796FD00B970BDFFF7B6FD98
:100630000020084908804FF0E0210861044806497D
:1006400008603046FFF75EFD2546A84700BFECE78F
:10065000002000080C38014008ED00E009488069DE
:1006600040F01000074988610748406820F4700096
:10067000054948600846406840F4801048604814C6
:100680000861704700100240001001402DE9F04160
:1006900086B0142105A800F0E1F910B106B0BDE85C
:1006A000F0819DF81400A52848D09DF814700D2FF6
:1006B00001D00A2F31D100205049514A1278885474
:1006C0004F480078002824DD08460078762803D0BB
:1006D0000846007856281CD148484078652818D12B
:1006E00046488078722814D14448C07838B14348CD
:1006F0000079622803D041480079422806D1414858
:1007000000F00AFA40A000F007FA02E03FA000F073
:1007100003FA00203A4908700FE03948007817289A
:1007200008D2374801780078401C354A10703348A9
:10073000475402E0002032490870AFE7322104A894
:1007400000F08CF900B1A9E7322103A800F086F986
:1007500000B1A3E7322102A800F080F900B19DE7C3
:100760009DF80C009DF8081040EA0124B4F5807F44
:1007700000D993E7002508E027494819322100F005
:100780006DF900B18AE7681C85B2A542F4DB32211D
:1007900003A800F063F900B180E7322102A800F05D
:1007A0005DF900B17AE79DF80C009DF8081040EA69
:1007B00001289DF810008DF80400E0B28DF80500C6
:1007C00020128DF80600032101A8FFF713FD07464C
:1007D00022461149FFF718FD0646464505D001217E
:1007E0009DF8100000F01AF858E722460A499DF8D3
:1007F0001000FFF741FD00BF50E700000801002096
:1008000001000020C01F00080D0A0000626F6F7415
:10081000206F6E6C790D0A000400002038B5044684
:100820000D465A208DF800008DF801408DF80250D9
:1008300000208DF803009DF8000000F05FF99DF89E
:10084000010000F05BF99DF8020000F057F99DF8F7
:10085000030000F053F938BD3EB55A208DF8000072
:1008600005208DF8010000208DF8020008208DF889
:10087000030000208DF8040020208DF805000020E2
:100880008DF8060008208DF8070000208DF808007C
:10089000E0208DF8090000208DF80A008DF80B008B
:1008A0000B210DF10100FFF7A5FC0546002405E032
:1008B0001DF8040000F022F9601CC4B20C2CF7D320
:1008C000E8B200F01BF9281200F018F93EBD000054
:1008D00070B50F4E002401E0601CC4B2305D0028EA
:1008E000FAD15A2000F00AF9072000F007F9002099
:1008F00000F004F9204600F001F9002504E0705DE5
:1009000000F0FCF8681CC5B2A542F8DB70BD000021
:10091000C01F000810B500F001F810BD0CB5002094
:10092000019000903348006840F4803031490860FD
:1009300000BF3048006800F4003000900198401C6F
:100940000190009818B90198B0F5A06FF1D129482D
:10095000006800F4003010B10120009001E0002098
:1009600000900098012843D12348006840F010000F
:10097000214908600846006820F003000860084626
:10098000006840F0020008601A4840681949486051
:100990000846406848600846406840F48060486007
:1009A0000846406820F47C1048600846406840F4DF
:1009B000E81048600846006840F08070086000BF9A
:1009C0000C48006800F000700028F9D00948406821
:1009D00020F00300074948600846406840F00200E4
:1009E000486000BF0348406800F00C000828F9D1B7
:1009F0000CBD0000001002400020024010B513485A
:100A0000006840F00100114908600846406810493C
:100A100008400E494860084600680E4908400B49E6
:100A200008600846006820F4802008600846406896
:100A300020F4FE0048604FF41F008860FFF76AFF53
:100A40004FF000600449086010BD00000010024033
:100A50000000FFF8FFFFF6FE08ED00E010B50246CB
:100A600013484FF0E02460610020A0610520206160
:100A70000B4614E00F48008800F0200040B10D48FC
:100A8000001D0088107000204FF0E024206110BD90
:100A90004FF0E020006900F4803000B15B1E002BB5
:100AA000E8D100204FF0E0242061401EEFE7000075
:100AB0003F190100003801400D48806944F20501EA
:100AC00008430B4988610B48006820F47F6009499E
:100AD00008600846006840F49660086040F27120A3
:100AE0000549088042F20C00091D0880704700008B
:100AF00000100240040801400838014000BF0549C9
:100B0000098801F080010029F9D00249091D0880F7
:100B1000704700000038014010B5044603E014F8A7
:100B2000010BFFF7EBFF20780028F8D110BD02E0A1
:100B300008C8121F08C1002AFAD170477047002068
:100B400001E001C1121F002AFBD17047FFF786FDAB
:100B5000FFF7B2FFFFF738FB44F64111884201D19D
:100B6000012000E00020054615B9FFF7F3FA08B9A7
:100B7000012000E00020194908700846007810B1F3
:100B80004FF0FF3001E04FF49660044614E0144843
:100B9000C06880F400501249C860FFF777FD0F4825
:100BA000007810B14FF0FF3406E0601C20B1142C27
:100BB00001D9143C00E00024002CE8D1FFF72EFD01
:100BC00001200649087000BF0548C06880F4005045
:100BD0000349C860FFF75AFDF6E700000000002057
:100BE00000100140E01F0008000000200400000089
:100BF0002E0B0008E41F0008040000201C05000064
:100C00003E0B000800000000000000000000000093
:100C100000000000000000000000000000000000D4
:100C200000000000000000000000000000000000C4
:100C300000000000000000000000000000000000B4
:100C400000000000000000000000000000000000A4
:101FC000426F6F745F30312E3030305F32303236D6
:101FD0003039323100000000000000000000000035
:041FE00000000000FD
:04000005080000ED02
:00000001FF
