:020000040800F2
:10200000E8050020052100081D420008113F0008D6
:1020100019420008312A0008575600080000000045
:102020000000000000000000000000008D440008D7
:10203000B92B000800000000E7420008A14C00088E
:102040001F2100081F2100081F2100081F21000870
:102050001F2100081F2100081F2100081F21000860
:102060001F2100081F2100081F2100081F21000850
:102070001F2100081F2100081F2100081F21000840
:102080001F2100081F2100081F2100081F21000830
:102090001F2100081F2100081F2100081F21000820
:1020A0001F2100081F2100081F2100081F21000810
:1020B000054D0008AD4E00081F2100081F21000833
:1020C0001F2100081F2100081F2100081F210008F0
:1020D0001F210008455400081F2100081F21000887
:1020E0001F2100081F2100081F210008DFF810D061
:1020F00000F0DAFA00480047CD5F0008AFF3008037
:10210000E80500200648804706480047FEE7FEE74E
:10211000FEE7FEE7FEE7FEE7FEE7FEE7FEE7FEE797
:10212000A54C0008ED2000082DE9F0410024061B15
:10213000254671F1000605DA01240027D0EB0700DF
:1021400067EB0101161E73F1000605DA0027D2EBDA
:102150000702012567EB030300F0CEF986460E4621
:1021600017469C46AC4204D00025D0EB050E65EB2B
:10217000010624B10020D2EB000760EB030C70468F
:1021800031463A466346BDE8F0812DE9FE4F804670
:1021900081EA0300C00F0C46009021F0004123F0BB
:1021A0000045B8EB0200A94105D2404621469046C1
:1021B0001C460B46024623F00040104347D0270D33
:1021C000C7F30A00C3F30A510290401A0190402855
:1021D0006BDAC3F3130040F4801B0098924620B1E1
:1021E0000023D2EB030A63EB0B0B01985946C0F1B5
:1021F0004002504600F0B1F906460D465046594699
:10220000019A00F0C9F910EB08006141002487EA47
:10221000115284EAE7731A4340D0009A62B3019ADC
:10222000012A4FEA075215DC001B61EB02014FF057
:10223000004202EA0752CDE90042001C41F580113C
:1022400032462B4600F0C9F903B0BDE8F08F404696
:102250002146F9E7001B61EB0201001C41F58013E8
:1022600000185B412018A2F5001747EB030140EA74
:10227000D570B6196D4111E06D084FEA360645EA92
:10228000C0754FEA0752001B61EB0201001C41F5CB
:10229000801149084FEA30000019514132462B465F
:1022A00003B0BDE8F04F00F089B90098012240006A
:1022B0000023D0EB020263EBE073009821464FEA63
:1022C000E074B8EB000061EB0401E9E783F0004340
:1022D0005BE781F0004158E72DE9FE4F81EA0304F6
:1022E00004F0004421F0004100944FF0000B23F073
:1022F000004350EA01045ED052EA03045BD0C3F30A
:102300000A54C1F30A552C44A4F2F3340194A0FBFF
:102310000254C1F3130141F48011C3F3130343F4D6
:10232000801301FB024400FB034E840A970A44EA2F
:10233000815447EA8357A4FB076802958D0A05FB81
:1023400007854FEA932C04FB0C542705029D4FEAA6
:10235000065847EA1637B5EB08056EEB070C870EF3
:10236000920E47EA811742EA8312A7FB0201B6EBFD
:102370000B0164EB00042B0D43EA0C335E1844EBB5
:102380001C50DA465146E7FB0201C5F313044FEA3D
:102390000B3343EA14534FEA0432019C43EA060329
:1023A000A4F10C040294009CCDE900B400F015F9EE
:1023B00003B0BDE8F08F00200146F9E72DE9F04DAC
:1023C00081EA030404F0004B21F0004514464FF06D
:1023D000000A23F0004150EA050220D054EA01022D
:1023E0001DD0C5F30A570246C5F31303C1F313000A
:1023F000C1F30A5640F4801543F48013A7EB060896
:10240000101BD64608F2FD3873EB050002D308F125
:10241000010801E092185B41B8F1000F03DA0020D7
:102420000146BDE8F08D00204FF480110646844639
:102430000EE0171B73EB050705D3121B63EB0503B7
:1024400006434CEA010C49084FEA300092185B4100
:1024500050EA0107EDD152EA030012D082EA0400EB
:1024600083EA0501084305D0101BAB4106D20122C7
:10247000002306E000224FF0004302E06FF001026B
:1024800053101AEB06004CEB085110EB0A0041EB1D
:102490000B01BDE8F04D00F091B8000030B5041E0E
:1024A00071F1000404DB4FF00044404264EB010191
:1024B000141E73F1000405DB1C464FF0004352422A
:1024C00063EB0403994208BF904230BD30B50B4620
:1024D000014600202022012409E021FA02F59D4254
:1024E00005D303FA02F5491B04FA02F52844151E28
:1024F000A2F10102F1DC30BD2DE9F05F05460020BC
:1025000092469B4688460646814640241BE0284664
:1025100041464746224600F02FF853465A46C01A15
:10252000914110D311461846224600F016F82D1A94
:1025300067EB01084F4622460120002100F00DF80C
:1025400017EB00094E41201EA4F10104DFDC4846D0
:1025500031462A464346BDE8F09F202A04DB203A54
:1025600000FA02F1002070479140C2F1200320FAE6
:1025700003F3194390407047202A04DB203A21FAE4
:1025800002F00021704721FA02F3D040C2F120028C
:102590009140084319467047202A06DBCB17203AA2
:1025A00041FA02F043EAE07306E041FA02F3D04058
:1025B000C2F12002914008431946704710B5141E1D
:1025C00073F1000408DA401C41F1000192185B41EC
:1025D0001A4301D120F0010010BD2DE9F04D9246C3
:1025E0009B4611B1B1FA81F202E0B0FA80F22032DA
:1025F0009046FFF7B2FF04460F4640EA0A0041EA60
:102600000B0153465A46084313D0114653EA0100C2
:1026100019D0C8F140025046FFF7AEFF05460E46FE
:10262000504659464246FFF798FF084305D001201F
:1026300004E020463946BDE8F08D0020054346EA17
:10264000E0762C4337430A986305E40AA0EB0800C0
:102650000022FD0A44EA47540A3002D50020014610
:10266000E9E7010510196941DDE9084500196941EB
:10267000BDE8F04DA2E7C1F30A52C1F3130140F2E5
:10268000FF3341F480119A4202DA0020014670477C
:1026900040F233439A42A2F2334202DC5242FFF745
:1026A0006BBFFFF75ABF0000064C074D06E0E0681D
:1026B00040F0010394E8070098471034AC42F6D389
:1026C000FFF718FD686200088862000821B182687F
:1026D00042F00102826003E0826822F0010282601F
:1026E0007047000010B504461248844208D1012109
:1026F000401501F035FE0021601501F031FE17E0B4
:102700000D48844208D10121001501F029FE002165
:10271000201501F025FE0BE00848844208D1012174
:10272000C80301F01DFE00214FF4004001F018FE27
:1027300010BD00000024014000280140003C014081
:10274000014600208A6802F004020AB1012000E07C
:10275000002070470146C86C80B2704702460020D6
:1027600013680B400BB1012000E0002070470146C8
:1027700000208A6802F008020AB1012000E000206F
:102780007047000030B502460020002350680F4C0F
:1027900020400D790C6844EA05242043506090687D
:1027A0000B4C2040D1E902542C434D7944EA4504B6
:1027B00020439060D06A20F470000C7C641EE4B268
:1027C000234340EA0350D06230BD0000FFFEF0FF1B
:1027D000FDF7F1FFF0B504460D4600200021092D5C
:1027E00011DDE068A5F10A0606EB4607072606FAA2
:1027F00007F18843A5F10A0606EB460603FA06F13F
:102800000843E0600CE0206905EB4507072606FA5F
:1028100007F1884305EB450603FA06F108432061FA
:10282000072A0FDA606B561E06EB86071F2606FA8C
:1028300007F18843561E06EB860605FA06F10843A3
:10284000606322E00D2A0FDA206BD61F06EB8607A5
:102850001F2606FA07F18843D61F06EB860605FAFF
:1028600006F10843206310E0E06AA2F10D0606EBD2
:1028700086071F2606FA07F18843A2F10D0606EB2C
:10288000860605FA06F10843E062F0BD816841F072
:1028900008018160704721B1826842F4A002826021
:1028A00003E0826822F4A00282607047816841F0F0
:1028B00004018160704710B50446204600F0EEFA2E
:1028C00040F6E441484340F6FF7190FBF1F040F2DE
:1028D0007261081A4000052190FBF1F010BD000064
:1028E00000B587B0012140F2046001F029FD4FF4EA
:1028F000004001F0F9FC0820ADF8040000208DF83C
:10290000070001A9354801F027F91020ADF80400AF
:1029100000208DF8070001A9304801F01DF930486A
:10292000FFF7E0FE2F48FFF7DDFE002002908DF854
:102930000C008DF80D004FF46020049000200590ED
:1029400001208DF8180002A92548FFF71BFF02A9F6
:102950002448FFF717FF01212148FFF7B7FE0121A7
:102960002048FFF7B3FE1E48FFF790FF1D48FFF712
:102970008DFF00BF1A48FFF7FAFE0028FAD100BF0A
:102980001848FFF7F4FE0028FAD11548FFF78EFF2C
:102990001448FFF78BFF00BF1148FFF7D1FE002856
:1029A000FAD100BF0F48FFF7CBFE0028FAD102236F
:1029B000012203210A48FFF70DFF0223012204210F
:1029C0000848FFF707FF01210548FFF764FF0121D1
:1029D0000448FFF760FF07B000BD00000008014099
:1029E000002401400028014070B5044600250CE099
:1029F000012003F0ACFA0648007820B10020044919
:102A0000087002F0BFF8681C85B2A542F0DB70BD0B
:102A10002C00002008B500220092044A0092009A7F
:102A200002440092009A116008BD0000006C004052
:102A300000BFFEE710B501200C4948754FF47A60DD
:102A400000F00EF900F0FEF800F034F900F066F83E
:102A50000749886001F01CFD00F070F80449086126
:102A60000846C0680149086110BD00005C010020F3
:102A70003C01002010B501F023FD10BD2DE9F0410F
:102A800004460D4616461F46002C01DB012001E0DE
:102A90004FF0FF30074908700846057346608760AD
:102AA00040F64540C88300204875887500F0ECF971
:102AB000BDE8F0815C01002010B50448407D08B9F4
:102AC00000F0E2F90248C06810BD00005C0100207F
:102AD0003C010020002801DB012201E04FF0FF3221
:102AE000024B1A701A465160704700005C010020CA
:102AF00010B504460748007DA04209D10320FFF726
:102B0000DAFE054948610420FFF7D5FE02498861D5
:102B100010BD00005C0100203C01002010B50549FB
:102B2000C968054A127B5143034A5268881A02F069
:102B300094FD10BD3C0100205C01002070B50848E8
:102B4000C06808490969401A4EF6602180FB0140BF
:102B5000014641F68B0200232046FFF7E5FA70BDDF
:102B60003C0100205C01002010B5024615E01478FD
:102B70000B78412C04DB5A2C02DC04F12000C4B297
:102B8000412B04DB5A2B02DC03F12000C3B29C4230
:102B900001D0002010BD521C491C08780028E6D145
:102BA000107828B11078202802D01078092801D197
:102BB0000120EFE70020EDE770470000144AD28BB8
:102BC000821A11B240F6CC42914202DC524291424A
:102BD0000ADA0F4A9268002901DD0E4B01E041F646
:102BE0008B031A440A4B9A6002B2094BDA8341F60E
:102BF0008B02424340F6FF7392FBF3F2044B9B6857
:102C00001A44034B93F900305A43034BDA60704780
:102C10005C01002075E7FFFF3C01002010B508486B
:102C2000048804F49E4040B14BF2FF002040044968
:102C3000088000F02BF8012010BD0020FCE7000008
:102C40001454004010B50548007F28B10020034906
:102C50000877488BFFF7B2FF10BD00005C01002031
:102C600070B5044600250BE000F050F818B906488E
:102C7000807D20B906E00448807D00B902E06D1C2B
:102C8000A542F1D300BF70BD5C01002010B5012149
:102C9000064801F06BFA0021044801F067FA01F0E0
:102CA00027FA002002498875088310BD00540040AF
:102CB0005C01002010B51348807D00B110BD1248A2
:102CC000008800F0020008B1FFF7E0FF0E48183856
:102CD000008840F480600C49183908800846008854
:102CE0004FF2FF71084008491839088008460088EB
:102CF00040F4807008800120024988750020088314
:102D000000BFDBE75C01002018540040F8B5FFF776
:102D100085FF08B10120F8BD5948807D08B9002021
:102D2000F9E75748008B401C554908830846008B3B
:102D3000B0F5FA5F03D9FFF7A9FF0120EBE751488F
:102D400004884F48807D07287DD2DFE800F0950495
:102D500012263D4B640004F0010008B90020DAE7B8
:102D60006C204849091F08800220454988750120C8
:102D7000D1E704F0020008B90020CCE74148001D6B
:102D800000880090BDF800000C203E49091F088013
:102D900003203B4988750120BDE704F0040008B911
:102DA0000020B8E737481438008840F400603549FF
:102DB000143908800846008840F480700880042098
:102DC0002F4988750120A6E704F0010008B900200A
:102DD000A1E76D202B49091F088005202849887527
:102DE000012098E704F0020008B9002093E7254885
:102DF000001D00880090BDF80000224814380088AB
:102E00004FF6FF3108401F491439088006201C493D
:102E1000887501207FE704F0040008B900207AE7F4
:102E200018481438008840F4007016491439088096
:102E30001448001F0088C5B21248001F0088C6B29F
:102E40000846008800E017E040F4806008800846EB
:102E500000884FF2FF7108400A491439088046EA99
:102E60000520C0F30B0006494883012008770020A5
:102E70008875088301204EE7FFF708FF01204AE725
:102E80005C0100201454004010B5FFF713FF4FF40D
:102E90007A60FFF7E5FEFFF7D5FE10BD70B504467A
:102EA0000025032C01D1194E04E0042C01D1184E49
:102EB00000E0164E02213046FFF750FCA0B130462C
:102EC000FFF748FC054601213046FFF7E4FC032CE0
:102ED00002D11048056016E0042C02D10D4845606F
:102EE00011E00C4805600EE0032C03D1094800886E
:102EF00085B208E0042C03D10648808885B202E040
:102F00000448008885B2284670BD000000240140B6
:102F1000002801401C00002070B505461DB91CA00A
:102F200002F0B0FB70BD1E4890F83D0002280DD1A4
:102F30001B48446B002C00DA6442012C01DA18486B
:102F4000446A05FB04F000F09DF81EE0144890F878
:102F50003D0003280DD11248846B002C00DA644236
:102F6000C82C01DA40F24C4405FB04F000F02CF8C8
:102F70000BE00B49496A002902DD0949496A00E072
:102F8000012101FB05F000F07DF800BFCAE7000059
:102F90006469722063777C6363770D0A0000000028
:102FA0007C01002003468B4201DA084670479342B9
:102FB00001DD1046FAE71846F8E710B5044604F2BA
:102FC000226000F097FD10BD10B5044600F0D8FC5B
:102FD00000B910BD4FF47A6251422046FFF7E2FF7C
:102FE00005498863032081F83D000846816B03A0F2
:102FF00002F048FB00BFECE77C0100206D6F6465C8
:103000003D666F7263652075713D25640D0A000091
:1030100010B5044600F0B4FC00B910BD0748406884
:103020000649886108464461012081F83D00084650
:10303000416903A002F026FB00BFEEE77C010020FF
:103040006D6F64653D706F73207467743D25640D0A
:103050000A00000010B50649486800F0CFFE0020C5
:10306000034981F83D0003A002F00CFB10BD0000F5
:103070007C0100206D6F64653D72617463686574E6
:103080000D0A000010B5044600F07AFC00B910BD2E
:10309000282251422046FFF785FF09494863084628
:1030A00040688861084640684861022081F83D0018
:1030B0000846416B03A002F0E5FA00BFE7E7000015
:1030C0007C0100206D6F64653D7370642076656CD3
:1030D0003D25640D0A000000F8B50446D8A120463D
:1030E000FFF742FD28B9D8A12046FFF73DFD002893
:1030F00009D0D6A002F0C6FAE3A002F0C3FAF0A00D
:1031000002F0C0FAA2E2FDA12046FFF72DFD20B992
:10311000FBA12046FFF728FD10B1FFF79BFF95E2CA
:10312000F9A12046FFF720FD20B9F8A12046FFF7BE
:103130001BFD90B10094684601F093FA0098007866
:1031400020B9F449486BFFF79DFF7FE2684601F024
:10315000A5F80546FFF796FF78E2EFA12046FFF7B6
:1031600003FD20B9EEA12046FFF7FEFC90B10094CC
:10317000684601F076FA0098007820B9E549886B36
:10318000FFF722FF62E2684601F088F80546FFF784
:103190001BFF5BE2E3A12046FFF7E6FCA8B3002695
:1031A0000094684601F05DFA0098007820B9D9498A
:1031B0004868FFF72DFF27E0009800782B2804D1FE
:1031C00001260098401C009004E0009800782D280B
:1031D00000D10126684601F061F8054656B141F676
:1031E0008B0068434FF4B47190FBF1F0C949496812
:1031F000084406E041F68B0068434FF4B47190FB3D
:10320000F1F00746FFF704FF20E2FFE7C6A12046E2
:10321000FFF7AAFC20B30094684601F022FAC3A18C
:103220000098FFF7A1FC20B9C1A10098FFF79CFC12
:1032300018B10120FFF770FE08E2BEA10098FFF769
:1032400093FC20B9BCA10098FFF78EFC20B14FF091
:10325000FF30FFF761FEF9E10020FFF75DFEF5E1C9
:10326000B6A12046FFF780FC20B1AA494868FFF7C5
:10327000CFFEEBE1ADA12046FFF776FC20B9B1A16E
:103280002046FFF771FC30B1A249496801F21740AE
:10329000FFF7BEFEDAE1A7A12046FFF765FC20B9E3
:1032A000AAA12046FFF760FC30B19A494968A1F213
:1032B0001740FFF7ADFEC9E1A6A12046FFF754FC79
:1032C00010B100F0E3FBC1E1A4A12046FFF74CFCE4
:1032D00020B9A3A12046FFF747FC10B100F0ACFBDA
:1032E000B4E1204600F0BAF900288DD19EA1204615
:1032F000FFF73AFC20B99EA12046FFF735FC38B114
:103300000120844981F83E009BA002F0BBF99DE1B9
:103310009BA12046FFF728FC20B99BA12046FFF780
:1033200023FC38B100207B4981F83E0098A002F0D0
:10333000A9F98BE198A12046FFF716FC20B998A1C6
:103340002046FFF711FC38B10120724981F83F0097
:1033500095A002F097F979E195A12046FFF704FCCA
:1033600020B995A12046FFF7FFFB38B1002069493D
:1033700081F83F0092A002F085F967E192A1204612
:10338000FFF7F2FB002830D0904EE51C3078422841
:1033900002D170786F2800D08DA600E06D1C2878CF
:1033A0002028FBD028780928F8D0287828B98EA2C0
:1033B000314692A002F066F916E093A12846FFF785
:1033C000D3FB20B131468EA002F05CF90CE090A155
:1033D0002846FFF7C9FB20B183A189A002F052F96A
:1033E00002E08CA002F04EF930E190A12046FFF7F8
:1033F000BBFB20B984A12046FFF7B6FBF0B1012149
:103400004FF0C05000F07CFF012000F041FF44F677
:1034100041110420FFF7FEFA85A002F033F900BF46
:103420008648006800F4E06085490843001D834930
:103430000860BFF34F8F00BF00BFFEE702E100004E
:1034400068656C70000000003F000000722072612F
:1034500074636865742020737064204E2020666F4A
:10346000726365204E2020706F73205B2B7C2D5D76
:1034700064656720206469722063777C63637720CA
:103480002073746F700D0A006377202B3630202074
:10349000636377202D3630202070202073657420E0
:1034A0006B707C75717C6E7C646561647C676B702D
:1034B0007C6775717C737064204E0D0A00000000FB
:1034C000737461742020646267206F6E7C6F66661F
:1034D00020206862206F6E7C6F66662020696170B4
:1034E00020207665727C76657220626F6F747C76C0
:1034F0006572206170700D0A00000000720000000B
:1035000072617463686574007370640073706565DC
:10351000640000007C010020666F7263650000009B
:1035200074727100706F73006469720063770000D9
:103530002B000000636377002D00000073746F7030
:1035400000000000637736300000000063637736C8
:10355000300000007374617400000000700000000F
:10356000706172616D000000646267206F6E000020
:1035700064626720310000006462673D310D0A001B
:10358000646267206F666600646267203000000036
:103590006462673D300D0A006862206F6E000000B3
:1035A000686220310000000068623D310D0A0000B1
:1035B0006862206F666600006862203000000000CC
:1035C00068623D300D0A000076657200C01F000879
:1035D000426F6F745F3F3F2E3F3F3F5F3F3F3F3F34
:1035E0003F3F3F3F000000004170705F30312E30A0
:1035F00030315F32303236303932310025730D0AC6
:1036000025730D0A00000000626F6F740000000057
:10361000617070007665727C76657220626F6F747F
:103620007C766572206170700D0A0000696170001F
:103630006961702072657365740D0A000CED00E01D
:103640000000FA05214602A002F01CF8F8BD0000B7
:10365000756E6B2025730D0A0000000030B585B033
:103660000546049596A12846FFF77EFA10B900207A
:1036700005B030BD02E00498401C04900498007826
:1036800038B104980078202803D0049800780928DD
:10369000F1D104A800F0D8FF6B4601AA02A903A843
:1036A00000F08EFB87A10498FFF75EFA40B302E0BA
:1036B0000498401C04900498007838B1049800786D
:1036C000202803D0049800780928F1D104A800F03C
:1036D000E5FD0446B4F5FA7F01DA4FF4FA7444F6D6
:1036E0002060844200DD044621469DF80C00DDE99F
:1036F000003200F045FB7449486800F07FFBDBE0D6
:1037000072A10498FFF730FA10B302E00498401C4D
:1037100004900498007838B104980078202803D0E9
:10372000049800780928F1D104A800F0B7FD0446F8
:10373000C82C00DAC824B4F57A6F01DD4FF47A643E
:1037400022469DF80C00009B029900F019FBB3E0A3
:103750005FA10498FFF708FAE8B102E00498401C62
:1037600004900498007838B104980078202803D099
:10377000049800780928F1D104A800F08FFD0446D0
:10378000E0B2DDE90032029900F0FAFA4E494868E9
:1037900000F034FB90E04FA10498FFF7E5F9D0B1B9
:1037A00002E00498401C04900498007838B1049812
:1037B0000078202803D0049800780928F1D104A8C3
:1037C00000F06CFD044623469DF80C00DDE9012164
:1037D00000F0D6FA70E041A10498FFF7C5F9F8B1FE
:1037E00002E00498401C04900498007838B10498D2
:1037F0000078202803D0049800780928F1D104A883
:1038000000F04CFD0446B4F5FA7F01DA4FF4FA7487
:1038100044F62060844200DD04462B48C4614BE03E
:103820002FA10498FFF7A0F9E8B102E00498401C2A
:1038300004900498007838B104980078202803D0C8
:10384000049800780928F1D104A800F027FD044667
:10385000C82C00DAC824B4F57A6F01DD4FF47A641D
:103860001948046228E01FA10498FFF77DF9D8B138
:1038700002E00498401C04900498007838B1049841
:103880000078202803D0049800780928F1D104A8F2
:1038900000F004FD0446012C00DA0124142C00DDA4
:1038A00014240948446207E00FA001F0EBFE17A0C2
:1038B00001F0E8FE0120DBE600F0BEF80120D7E6CB
:1038C000736574006B7000007C010020757100004E
:1038D0006E0000006465616400000000676B7000AA
:1038E0006775710073706400736574206B707C750C
:1038F000717C6E7C646561647C676B707C677571DC
:103900007C737064204E0D0A000000007370642008
:103910004E207C20666F726365204E207C20706F85
:1039200073205B2B2F2D5D646567207C206469729A
:103930002063777C636377207C20720D0A0000008F
:10394000084890F83D00012804D0022804D003283C
:1039500006D103E004A0704704A0FCE704A0FAE746
:1039600005A0F8E77C010020706F7300737064009D
:10397000666F72636500000072617463686574004D
:1039800010B5054890F83C0008B1012010BD03A017
:1039900001F078FE0020F9E77C01002065727220BA
:1039A0006E6F7420616C69676E65640D0A000000BB
:1039B00070B505460C4622460021284600F004F862
:1039C000FFF758F870BD0000F8B504460D461646DE
:1039D0000948031F324629460090204600F0D1FBDB
:1039E000054A103A1169D0682C3200F04FFE0248A7
:1039F0001C3000F041FDF8BD8C0100200D4A5268DA
:103A00000C4B9B69D11A0B4AD26952424A434FF47C
:103A10007A7392FBF3F0074A126A824201DA054A8E
:103A2000106A044A126A5242824202DD014A126A54
:103A3000504270477C01002010B58CB008AB09AA39
:103A40000AA90BA800F0BCF9FFF77AFF04460D485D
:103A5000806B0C49496B0B4A526ACDE90504CDE9EC
:103A600003210848006A0749C969089ACDE900217D
:103A700002909DF82C100448DDE9093201F002FEA5
:103A80000CB010BD7C0100200C62000830B585B080
:103A900000F0AEF90446FFF753FF05460B48806B74
:103AA0000A49496B094A92F83C20084B5B69CDE909
:103AB0000043CDE902210490044883682946426806
:103AC00003A001F0DFFD05B030BD00007C01002047
:103AD0007374202573202564202564202564202507
:103AE000642025642076656C3D256420663D256450
:103AF0000D0A00002DE9F0410546284601F0B7FD0A
:103B0000054640F2226095FBF0F495FBF0F100FBD6
:103B10001156042C02DB0020BDE8F081012C01D0FD
:103B2000032C02D140F22260861B022C01D0032C10
:103B300002D14FF0FF3000E00120074664207043BF
:103B400040F2226190FBF1F6024830F8160078430B
:103B500000B2E1E7F86000082DE9F04102460025D7
:103B60000026002000230024002791F803C00CF059
:103B70000F0591F803C00CF0100CBCF1000F03D03E
:103B800091F802C04CEA050591F800C0BCF1000FA5
:103B900031D0146800202BE04FF0010C0CFA00F338
:103BA000B1F800C00CEA03069E4220D183004FF01A
:103BB0000F0C0CFA03F7BC4305FA03FC4CEA0404AF
:103BC00091F803C0BCF1280F06D14FF0010C0CFA9C
:103BD00000FCC2F814C00AE091F803C0BCF1480F21
:103BE00005D14FF0010C0CFA00FCC2F810C0401CCB
:103BF0000828D1D31460B1F800C0BCF1FF0F34DD48
:103C0000546800202EE000F1080C4FF0010808FA7B
:103C10000CF3B1F800C00CEA03069E4221D18300E8
:103C20004FF00F0C0CFA03F7BC4305FA03FC4CEA07
:103C3000040491F803C0BCF1280F05D100F1080C71
:103C400008FA0CF8C2F8148091F803C0BCF1480FD0
:103C500007D100F1080C4FF0010808FA0CF8C2F87F
:103C60001080401C0828CED35460BDE8F0810000CD
:103C7000F0B50A46002300240021002500F000468C
:103C8000B6F1004F02D11D4EF16901E01B4E716883
:103C9000C0F3034583B200F44016B6F5401F08D1C7
:103CA00021F07061154E766826F07066134F7E60C5
:103CB00012E000F48016B6F5801F06D1032606FA3E
:103CC00005F4A14341F0706106E0460D360103FAA8
:103CD00006F6B14341F0706122B1460D360103FA98
:103CE00006F6314300F00046B6F1004F02D1034E14
:103CF000F16101E0014E7160F0BD00000000014083
:103D00000161704708B501211D2000F019FB012158
:103D10001748FFF7ADFF4FF40050ADF8000010203A
:103D20008DF8030001208DF8020069461148FFF765
:103D300013FF4FF400510F48FFF7E2FF4020ADF8AA
:103D4000000069460C48FFF707FF40210A48FFF7CB
:103D5000D7FF4FF40070ADF8000069460748FFF741
:103D6000FBFE4FF400710548FFF7CAFF08BD0000D5
:103D7000000230000010014000080140000C01402A
:103D80002DE9F04105460E4617461C460B4880F8C3
:103D9000265006614761002C00DA00240F2C00DD5C
:103DA0000F2441F68B0060434FF4B47190FBF1F0A7
:103DB0000249886100F0D4F8BDE8F081BC01002020
:103DC00030B50A4C94F826400470084C24690C6005
:103DD000064C64691460054CA4694FF4B4756C43D7
:103DE00041F68B0594FBF5F41C6030BDBC0100204E
:103DF0000148406870470000BC01002010B504462F
:103E00000B4890F8260038B9022340F24C424FF498
:103E100048610C20FFF7B4FF054804600020044906
:103E20004860084684600020C860888410BD000097
:103E3000BC0100202DE9F0410746344887608068C6
:103E400032490968441A3148808C28B12F48808C47
:103E5000401E2E49888429E02C48006AA04210DACE
:103E60002A4800682949C969084428490860084661
:103E7000C069241A08464068401E4860282088848B
:103E800014E02248006A4042A0420FDD1F4800684B
:103E90001E49C969401A1D4908600846C0690444A2
:103EA00008464068401C486028208884174880697C
:103EB000A04206DB154880694042A04201DC002593
:103EC00009E0002C03DD11488069051B03E00F4861
:103ED0008069204445420D48006968434FF47A7177
:103EE00090FBF1F60948426940694142304600F0D2
:103EF0002BF806460549C968881900EBD0714E10A9
:103F00000248C6603046BDE8F0810000BC010020D8
:103F100008B50121102000F013FA0FE00848C0682E
:103F200080F400500649C8600020009002E000982C
:103F3000401C0090034900988842F8D3EEE7000047
:103F400000100140803801000346934201DD104615
:103F500070478B4201DA0846FAE71846F8E7000096
:103F6000134890F82600032803D20320104981F853
:103F700026000F4890F826000C2803D90C200C4985
:103F800081F826000A4890F8260041F68B0191FB43
:103F9000F0F00749C8610846C06900EB800101EBF9
:103FA000C000142190FBF1F0014908627047000045
:103FB000BC01002021B1028842F00102028004E02D
:103FC00002884FF6FE731A400280704710B504460F
:103FD0000B48844209D10121480500F0A1F90021D4
:103FE0004FF4001000F09CF908E00121880500F072
:103FF00097F900214FF4800000F092F910BD000005
:10400000005400402DE9F04385B004460D460026DB
:10401000B1460427DFF8CC80A6884FF6C070064072
:10402000684600F0ADF9DDF808802F48B8FBF0F0E5
:104030001FFA80F946EA0906A68020884FF6FE712D
:104040000840208000262949286888420CD8286822
:104050004000B8FBF0F087B2042F00DA04273E439B
:1040600009F10100208427E0E8884BF6FF718842BF
:1040700006D1286800EB4000B8FBF0F087B209E0F9
:10408000286800EBC00101EB0010B8FBF0F087B22C
:1040900047F48047C7F30B0008B947F0010747F41E
:1040A000004006434FF4967009FB00F04FF47A711C
:1040B00090FBF1F0401C2084A683208840F0010092
:1040C000208026884FF6F5300640A8886989084385
:1040D00006432680A88929890843208105B0BDE8C8
:1040E000F083000000127A0040420F00A086010019
:1040F00000B585B00121082000F022F90121480512
:1041000000F0FEF8C020ADF810001C208DF8130060
:1041100003208DF8120004A91148FFF71DFD114876
:10412000FFF754FF0020ADF804004BF6FF70ADF828
:1041300006000020ADF808004FF48060ADF80A00DA
:104140000001ADF80C000848009069460548FFF7EB
:1041500059FF01210348FFF72DFF05B000BD000006
:10416000000C014000540040801A060021B1028872
:1041700042F40042028003E00288C2F30E02028091
:1041800070472DE9F05F04460D46164699463046C5
:10419000FFF7B0FC82463046FEF70FFF834685FBF3
:1041A0000B3084FB0A125F1A60EB02014FF47A7243
:1041B00000233846FDF7B8FFC9F8000084FB0B1058
:1041C00085FB0A238F1840EB03014FF47A7200231A
:1041D0003846FDF7A9FF0A990860BDE8F09F000086
:1041E00008B5002011E00A49C96881F40051084A65
:1041F000D1600021009102E00099491C0091054A1C
:1042000000999142F8D3411CC8B21028EBD308BDE5
:1042100000100140400D030000BFFEE770470000A2
:1042200070B5002100230F22C47804B3154C246814
:1042300004F4E064C4F5E064210AC1F10403CA4057
:10424000447804FA03F184781440214309010E4CA8
:104250000678A155047804F01F050124AC400578C8
:104260006D11AD0005F1E025C5F8004109E00478C5
:1042700004F01F050124AC40044D0678761145F882
:10428000264070BD0CED00E000E400E080E100E0BD
:10429000014908627047000000000E4270B50446F4
:1042A00000250126204600F0CFF9206800782D284F
:1042B00003D16E1E2068401C206009E02068007851
:1042C000303805EB850100EB41052068401C20607B
:1042D00020680078302803DB206800783928EDDD7D
:1042E00006FB05F070BD704701460020034A506888
:1042F00020F4404008435060704700000010024026
:1043000029B1064AD2690243044BDA6104E0034A48
:10431000D2698243014BDA6170470000001002400D
:1043200029B1064A12690243044B1A6104E0034AA8
:1043300012698243014B1A6170470000001002406D
:1043400029B1064A92690243044B9A6104E0034A88
:1043500092698243014B9A6170470000001002404D
:1043600029B1064AD2680243044BDA6004E0034AEA
:10437000D2688243014BDA607047000000100240AF
:1043800030B500210022002400232D4D6D6805F07A
:104390000C0121B1042905D0082923D105E0294DBC
:1043A000056022E0274D05601FE0254D6D6805F48E
:1043B0007012234D6D6805F48034022505EB92429E
:1043C0001CB9214D554305600BE01D4D6D6805F48A
:1043D00000351DB11C4D5543056002E0194D554394
:1043E000056002E0174D056000BF00BF144D6D6809
:1043F00005F0F0010909154D6B5C0568DD4045606D
:104400000F4D6D6805F4E061090A104D6B5C45685D
:10441000DD4085600A4D6D6805F46051C90A0B4D99
:104420006B5C4568DD40C560054D6D6805F4404135
:10443000890B074D6B5CC568B5FBF3F5056130BDB5
:104440000010024000127A0000093D000000002028
:104450001000002010B50446FEF760FB024988609A
:1044600008468068206010BD3C0100200149C968F1
:10447000016070473C0100200188034A1180418897
:1044800051808188918070473C0100207047000076
:1044900010B50A48008878B90848408860B90748CC
:1044A000808848B90320FEF706FA044948610420D1
:1044B000FEF701FA0149886110BD00003C010020AF
:1044C00010B5254800882449498888420BDD2248D8
:1044D000008821498988884201DD002000E002200F
:1044E0001E4908750AE01C4840881B498988884293
:1044F00001DD012000E002201849087516480088F7
:104500004FF4B461484342F21071B0FBF1F084B251
:1045100021464FF0804000F036FF0F4840884FF4AE
:10452000B461484342F21071B0FBF1F084B221460D
:104530004FF0804000F029FF074880884FF4B461B5
:10454000484342F21071B0FBF1F084B221464FF0C3
:10455000804000F01CFF10BD3C0100205C010020E9
:1045600010B500F001F810BD0CB5002001900090CE
:104570003348006840F480303149086000BF30485B
:10458000006800F4003000900198401C01900098F1
:1045900018B90198B0F5A06FF1D12948006800F46E
:1045A000003010B10120009001E000200090009840
:1045B000012843D12348006840F0100021490860D9
:1045C0000846006820F0030008600846006840F0D4
:1045D000020008601A484068194948600846406867
:1045E00048600846406840F480604860084640687B
:1045F00020F47C1048600846406840F4E8104860A9
:104600000846006840F08070086000BF0C480068F1
:1046100000F000700028F9D00948406820F003003D
:10462000074948600846406840F00200486000BF03
:104630000348406800F00C000828F9D10CBD0000C8
:10464000001002400020024002E00168491C0160A5
:10465000016809782029F8D0016809780929F4D07F
:10466000704710B5044602E02068401C20602068B6
:10467000007838B120680078202803D020680078BE
:104680000928F1D12046FFF7DFFF10BD2DE9F04FDB
:104690008BB0814688461446C24640F2C46089FB0E
:1046A00000B1022200235846FDF73EFD4FF47A7216
:1046B0000023CDE90201FDF737FD08EBD871A0EB2F
:1046C0006100CDF810800A900021D9F1000361EB60
:1046D000E97040F2C462A3FB02CB00FB02B003FB13
:1046E00001004FF002020B46CDE900C0604601997F
:1046F000FDF71AFD4FF47A720023CDE90201FDF7B0
:1047000013FD08EBD871A0EB6100CDF81080099083
:10471000BAF1000F01DD012100E000210A98002814
:1047200001DD022000E0002001440998002801DD9D
:10473000042000E000200844059083490598085CA7
:10474000059002208AFB00134FF47A724FF0000CA0
:10475000A1FB020B03FB02B201FB0C2342F210711E
:104760006246A0FB01CB03FB01B100FB021040F24B
:10477000C4620023CDE900C060460199FDF7D4FC76
:1047800042F6E0620023CDE90201FDF7CDFC08907E
:1047900002210A9880FB01024FF47A734FF0000C5B
:1047A000A0FB031B02FB03B200FB0C2C42F21072B5
:1047B00000200B466146A3FB02CB01FB02B103FBC9
:1047C000001040F2C4620023CDE900C060460199A8
:1047D000FDF7AAFC42F6E0620023CDE90201FDF7F5
:1047E000A3FC07900221099880FB01204FF47A7303
:1047F0000021A2FB03CB00FB03B002FB010042F24D
:1048000010720B46ACFB021B00FB02B00CFB03005A
:1048100040F2C4620023CDE9001008460199FDF77B
:1048200083FC42F6E0620023CDE90201FDF77CFC47
:104830000690059807281DD2DFE800F01C04070C3D
:104840000F141700079D089E17E006984542079829
:10485000464212E0089D069E0FE0079845420898E0
:1048600046420AE0069D079E07E0089845420698E2
:10487000464202E00025002600BF00BFA81942F210
:10488000107188421DDD05EB060B084685FB001004
:104890005A464FEAEB73CDE9021008460399FDF73B
:1048A00043FC054642F2107086FB00105A464FEA60
:1048B000EB73CDE9021008460399FDF735FC064677
:1048C00000BF42F21071491B881B00EBD0714F10E2
:1048D000059807282FD2DFE800F02E040B121920CC
:1048E0002700A81938442080F0196080A78027E0AD
:1048F000E8192080A81938446080A78020E027802C
:10490000A81938446080F019A08019E02780E819C0
:104910006080A8193844A08012E0F01920806780D8
:10492000A8193844A0800BE0A8193844208067807B
:10493000E819A08004E0002020806080A08000BFF3
:1049400000BF0BB0BDE8F08FF06000082DE9F05F0C
:1049500049A000F097FE002414E041F68B0060436C
:104960004FF4FA7190FBF1F041F2682100EB01097C
:1049700049464FF4E160FFF71BF80220FEF734F8D8
:10498000601C84B2B4F5FA7FE7DDFEF795F80546C2
:104990004FF4FA7414E041F68B0060434FF4FA715F
:1049A00090FBF1F041F2682100EB010949464FF418
:1049B000E160FEF7FDFF0220FEF716F8601E84B2EC
:1049C000002CE8DC00210846FEF7F2FFC820FEF7C5
:1049D0000BF8FEF771F80646AF1B002F00DA7F4296
:1049E000502F09DAA91B29A000F04CFE00202D4908
:1049F00081F83C00BDE8F09FB54202DA4FF0FF308D
:104A000000E00120824600215046FEF763F841F2A3
:104A100068214FF4E160FEF7CBFF4FF4FA70FDF729
:104A2000E3FFFEF749F8C0EBC00B584600F01FFE4D
:104A3000804641465046FEF74DF800210846FEF7F5
:104A4000B7FFC820FDF7D0FFFEF736F88346FFF723
:104A5000D5F90120134981F83C00002081F83D0080
:104A600081F83E00424651460FA000F00BFE16486A
:104A700000F008FE00BFBDE7464F4320616C696748
:104A80006E2073746172740D0A000000464F43205B
:104A9000616C69676E206661696C2C20643D2564D9
:104AA0000D0A00007C010020464F4320616C6967BD
:104AB0006E206F6B206469723D2564207A65726F89
:104AC0003D25640D0A000000C461000810B50020F7
:104AD000104981F83C00886081F83D0081F83E0073
:104AE000012081F83F0040F6C410C8614FF4AF6068
:104AF000086201204862002088610120486340F27A
:104B00004C408863022302464FF448610C20FFF7B3
:104B100037F910BD7C01002010B5194890F83C0011
:104B200000B910BD1648001DFFF7A0FC1448FFF7A0
:104B300091FC134890F83D00032804D11048806B85
:104B40000F49886014E00E4890F83D00012804D019
:104B50000B4890F83D00022804D1FEF74FFF0849AA
:104B6000886005E006494868FFF764F904498860F1
:104B700003490A6888680021FEF726FF00BFD0E7D6
:104B80007C01002010B53B48008800F4004028B1AB
:104B90003948FEF7A1FA00203649088037480068F6
:104BA00037490968884200D110BD3448006834494B
:104BB0000860344890F83D0002280AD131488069E5
:104BC0003049496B08442F4988610846806948612B
:104BD00024E02C4890F83D0001281FD1294A526951
:104BE000284B9B69D11A274A506A012800DA012014
:104BF000814205DD234A92690244224B9A610CE00E
:104C00004242914205DA1F4A9269121A1D4B9A617B
:104C100003E01C4A52691B4B9A6100BF194890F887
:104C20003F0098B11548006817490968401AB0F567
:104C3000FA7F0BD311480068134908601148836854
:104C4000426890F83C1011A000F01CFD0D4890F84F
:104C50003E0000B9A8E711480078401C0F490870D1
:104C600008460078C82803D300200870FEF70EFF1E
:104C700000BF99E7180000203C000020240000201D
:104C8000300000207C0100203400002068622025D4
:104C9000642025642025640D0A00000038000020EF
:104CA0007047000010B51248006840F0010010493C
:104CB0000860084640680F4908400D4948600846AA
:104CC00000680D4908400A4908600846006820F459
:104CD000802008600846406820F4FE0048604FF4D9
:104CE0001F008860FFF73CFC04480549086010BDC0
:104CF000001002400000FFF8FFFFF6FE0020000851
:104D000008ED00E010B50221480700F013FA60B189
:104D10000221480700F00AF94FF08040008800F0B7
:104D2000100010B10020FDF7E3FE0421080700F099
:104D300001FA60B10421080700F0F8F84FF0804054
:104D4000008800F0100010B10120FDF7D1FE08210D
:104D5000C80600F0EFF960B10821C80600F0E6F8D7
:104D60004FF08040008800F0100010B10220FDF7E5
:104D7000BFFE10BD00B589B001210420FFF7E0FAA5
:104D800001210846FFF7BCFA0720ADF820001820E3
:104D90008DF8230003208DF8220008A92D48FEF786
:104DA000DBFE4FF0804000F0D1F80020ADF8140099
:104DB00040F29F50ADF818002020ADF816000020FA
:104DC000ADF81A0005A94FF0804000F0E3FA60202A
:104DD000ADF804000120ADF806000020ADF80A008F
:104DE000ADF80C0001A94FF0804000F0BDF901A919
:104DF0004FF0804000F00EFA01A94FF0804000F023
:104E000069FA0821C80600F0FBF90821C80600F07D
:104E100053FA0821C80600F0ADFA0121880700F016
:104E200079F801220E21900700F095F91C208DF8E9
:104E3000000001208DF801008DF802008DF80300BC
:104E40006846FFF7EDF90121880700F072F809B014
:104E500000BD0000000801401FB501210220FFF73E
:104E60004FFA1D208DF8000001208DF803006846E0
:104E7000FFF7D6F940F2E730ADF808004720ADF86B
:104E800004000020ADF80600ADF80A0001A90648AC
:104E900000F080FA01221146034800F05CF901217C
:104EA000014800F046F81FBD0004004010B5012184
:104EB000134800F03FF901281CD112480068401C3B
:104EC0001049086010480068401C0F4908600F48EE
:104ED000007810B901200D4908700B48006864285B
:104EE00008D30020084908600948C06880F40050D1
:104EF0000749C8600121024800F018F810BD000001
:104F00000004004024000020280000202C00002085
:104F10000010014021B1028842F08002028004E0CA
:104F200002884FF67F731A4002807047CA4302829C
:104F3000704721B1028842F00102028004E0028839
:104F40004FF6FE731A4002807047000010B5044609
:104F50006848844208D10121C014FFF701FA0021FA
:104F6000E014FFF7FDF9C4E0B4F1804F08D101214E
:104F70000846FFF7D5F900210120FFF7D1F9B8E085
:104F80005D48844208D101210220FFF7C9F90021C0
:104F90000220FFF7C5F9ACE05848844208D101214E
:104FA0000420FFF7BDF900210420FFF7B9F9A0E0C4
:104FB0005348844208D101210820FFF7B1F90021AC
:104FC0000820FFF7ADF994E04E48844208D1012152
:104FD0001020FFF7A5F900211020FFF7A1F988E0C4
:104FE0004948844208D101212020FFF799F9002186
:104FF0002020FFF795F97CE04448844208D1012144
:105000004014FFF7ADF900216014FFF7A9F970E033
:105010003F48844209D10121C804FFF7A1F90021CA
:105020004FF40020FFF79CF963E03A48844209D12D
:1050300001210805FFF794F900214FF48010FFF7D4
:105040008FF956E03448844209D101214805FFF721
:1050500087F900214FF40010FFF782F949E02F484B
:10506000844208D101214020FFF75AF90021402055
:10507000FFF756F93DE02A48844208D101218020FB
:10508000FFF74EF900218020FFF74AF931E025486B
:10509000844208D101218015FFF742F90021A015B3
:1050A000FFF73EF925E02048844209D10121080498
:1050B000FFF756F900214FF48030FFF751F918E05F
:1050C0001A48844209D101214804FFF749F9002117
:1050D0004FF40030FFF744F90BE01548844208D143
:1050E00001218804FFF73CF900214FF48020FFF7ED
:1050F00037F910BD002C01400004004000080040BA
:10510000000C00400010004000140040003401403A
:10511000004C014000500140005401400018004084
:10512000001C0040002000400040014000440140BD
:105130000048014030B50246002000230024158AB3
:1051400005EA0103958905EA010413B10CB10120B8
:1051500000E0002030BD1AB183890B43838102E057
:1051600083898B438381704770B50024002200231C
:10517000058C4FF6FE7635400584028C8388048BBF
:105180004FF68F752C40B51E2C400D882C43751E94
:105190002A400D892A434D882A43144DA8420BD03A
:1051A000134DA84208D0134DA84205D0124DA84275
:1051B00002D0124DA84213D14FF6F7752A404D89FF
:1051C0002A434FF6FB752A408D882A434FF6FF6528
:1051D0002B404FF6FF552B408D892B43CD892B4318
:1051E00083800483CD888586028470BD002C0140B5
:1051F00000340140004001400044014000480140AB
:105200000A460021018B4FF6F773194011430183C1
:105210007047000070B5002400220023058C4FF673
:10522000EF7635400584028C8388048B48F6FF7541
:105230002C404FF6FF452C400D884FF6FF7606EACE
:1052400005252C434FF6DF752A400D8906EA051522
:105250002A434D8806EA05152A43154DA84202D077
:10526000144DA8421DD14FF67F752A404D894FF647
:10527000FF7606EA05152A434FF6BF752A408D884A
:1052800006EA05152A434FF6FF352B404FF2FF750E
:105290002B408D8906EA85052B43CD8906EA8505D5
:1052A0002B4383800483CD880587028470BD000072
:1052B000002C0140003401400A460021018B4FF2CE
:1052C000FF7319404FF6FF7303EA0223194301836A
:1052D0007047000070B5002400220023058C4FF6B3
:1052E000FF6635400584028C8388848B4FF68F756A
:1052F0002C404FF6FC752C400D882C434FF6FF5583
:105300002A400D894FF6FF7606EA05252A434D8887
:1053100006EA05252A43154DA84202D0144DA8429D
:105320001DD14FF2FF752A404D894FF6FF7606EAF0
:1053300005252A434FF6FF352A408D8806EA0525C4
:105340002A434EF6FF752B404DF6FF752B408D8995
:1053500006EA05152B43CD8906EA05152B43838004
:105360008483CD888587028470BD0000002C0140B5
:10537000003401400A460021818B4FF6F773194033
:105380001143818370478186704701877047818709
:1053900070470000002202881D4B98420ED01D4B22
:1053A00098420BD0B0F1804F08D01B4B984205D0EB
:1053B0001A4B984202D01A4B984204D14FF68F7381
:1053C0001A404B881A43174B984207D0164B984205
:1053D00004D04FF6FF431A40CB881A4302808B88D3
:1053E00083850B8803850A4B98420BD0094B984262
:1053F00008D00E4B984205D00D4B984202D00D4B71
:10540000984201D10B7A0386012383827047000002
:10541000002C01400034014000040040000800401E
:10542000000C00400010004000140040004001400B
:10543000004401400048014010B5FDF7FBFAFFF7BA
:10544000A1FB10BD70B540F22551194800F042F89B
:1054500060B3174800F0FAF8C5B21648008800F4A7
:10546000004000B170BD0D2D01D00A2D0FD11148A3
:105470000088C0F30D0404B9F4E700200E49085574
:105480000C48008840F400400A4908800EE00948B2
:105490000088C0F30D0408480555601C05490880C4
:1054A00008460088FE2801DD0020088000BFD9E7FB
:1054B00000380140180000203C00002021B1828902
:1054C00042F40052828104E082894DF6FF731A4053
:1054D0008281704770B50246002400230025002019
:1054E00040F66A16B14200D100BFC1F3421501F087
:1054F0001F03012606FA03F3012D02D196893340DA
:1055000006E0022D02D1168A334001E0968A33402C
:105510000C12012606FA04F41688344013B10CB1BB
:10552000012000E0002070BDF0B5034600240026F5
:105530000025002040F66A17B94200D100BF184686
:10554000C1F3421401F01F06012707FA06F5012CEA
:1055500001D10C3004E0022C01D1103000E01430F5
:105560001AB107682F43076002E00768AF4307607E
:10557000F0BD00002DE9F04786B005460E46002438
:10558000A24600BFA1460027B08900B100BF2F4648
:105590002C8A4CF6FF700440F08804432C82AC89BE
:1055A0004EF6F3100440B0883189084371890843EE
:1055B0000443AC81AC8A4FF6FF400440B0890443F9
:1055C000AC8201A8FEF7DCFE1F48874202D1DDF85D
:1055D00010A001E0DDF80CA0A88900F4004040B163
:1055E0000AEBCA0000EB0A1031684900B0FBF1F881
:1055F00007E00AEBCA0000EB0A1031688900B0FB33
:10560000F1F86420B8FBF0F004012009642101FBEB
:105610001089A88900F4004040B1322000EBC90095
:10562000B0FBF1F000F00700044308E0322000EB8B
:1056300009106421B0FBF1F000F00F0004432C814D
:1056400006B0BDE8F08700000038014001468888B8
:10565000C0F30800704700BFFEE741F68B0190FBE6
:10566000F1F201FB1200002800DA0844704741F60D
:105670008B0190FBF1F201FB1200002800DA0844D4
:10568000704700000FB4054B10B503A9044A0298F7
:1056900000F0DAF810BC5DF814FB0000995F000818
:1056A0001400002002E008C8121F08C1002AFAD125
:1056B00070477047002001E001C1121F002AFBD192
:1056C000704700002DE9FF5F82B00021DDE9043062
:1056D000020DDDF840B0034318D044F61050A2F29A
:1056E000FF3242431514119801281FD0A5EB0B007F
:1056F000401C5FEA000A4FF000064E4FDFF8389179
:10570000B046504615D5CAF1000413E011980124A3
:105710004AA3012801D16FEA0B010298119AC0E94E
:105720000031C0E9024206B0BDE8F09FCBF10000B5
:10573000DFE704460021404A491842EB0450CDE916
:10574000001012E0E00707D032463B46404649468B
:10575000FCF7C2FD8046894632463B461046194654
:10576000FCF7BAFD06460F466410002CEAD1DDE9CD
:105770000401DDE90023BAF1000F06DAFCF7ACFD05
:1057800042464B46FCF7A8FD05E0FCF717FE4246F3
:105790004B46FCF713FE04460E460022284BFCF74E
:1057A0007DFE03D84FF0FF30014607E00022254B75
:1057B00020463146FCF7E9FCFCF75DFF102409E0C8
:1057C000002C0ADB0A220023FCF796FE039B3032F2
:1057D0001A55641E50EA0102F2D1641C039AC4F106
:1057E00011031444119A012A03D0012208430DD158
:1057F0000AE0084304D000204FF0110B119072E72B
:10580000A3EB0B056D1E0DE05B4504DD4FF00002C0
:1058100005F1010504E003DA4FF00002A5F10105EE
:10582000002AECD002981199C0E90231C0E9004584
:1058300079E70000000014400000F03F3000000055
:105840000000F0430000E03F2DE9FF4F95B09A467D
:10585000884606460025EEE1252877D10024274614
:10586000F94A0121039400E0044316F8013F203B6C
:1058700001FA03F01042F7D130782A2811D06FF0E6
:105880002F033078A0F13002092A16D8039A44F089
:10589000020402EB820203EB42021044761C0390E6
:1058A000EFE758F8042B0392002A03DA504244F43D
:1058B0000054039044F00204761C30782E2816D150
:1058C00016F8010F44F004042A280DD06FF02F02BF
:1058D0003078A0F13003092B09D807EB870302EBDE
:1058E0004303C718761CF3E758F8047B761C30781E
:1058F0006C280FD006DC4C2817D068280DD06A28F9
:1059000014D104E0742810D07A280FD10DE044F4AB
:1059100000140AE044F4801401E044F44014727866
:10592000824202D104F58014761C761C30786628F9
:105930000BD013DC582877D009DC002875D0452817
:10594000F6D04628F4D047281AD193E118E063280E
:1059500035D0642879D0652812D18BE1702873D0B6
:1059600008DC6728F1D069286FD06E280DD06F2829
:1059700006D1ACE073282CD0752874D0782853D089
:105980005246179990476D1C54E1C4F30250022807
:1059900009D003280DD0D8F8001004280DD00D60D0
:1059A00008F1040846E1D8F80010EA17C1E90052EE
:1059B000F6E7D8F800100D80F2E70D70F0E718F860
:1059C000041B8DF8001000208DF80100EB4601202B
:1059D00003E058F804BB4FF0FF3061074FF00001BF
:1059E00002D40DE009F101018946B9420FDA81457F
:1059F000F8DB1BF809100029F4D108E009F10101D6
:105A000089468142FADB1BF809100029F6D1039878
:105A10005346A0EB090721463846179A00F080FA52
:105A2000284400EB090507E044E008E10DE01BF81D
:105A3000010B524617999047B9F10109F7D2534625
:105A400021463846179AF2E039E00A21C4F302529F
:105A50004FF0000B0091022A06D058F8040BC11732
:105A6000032A09D00AE023E008F1070020F007022A
:105A7000F2E80201904605E000B2C117042A01D104
:105A800040B2C117002906DA0A460021404261EB04
:105A900002012D2202E0220504D52B228DF80420DC
:105AA000012203E0E20701D02022F7E7914657E008
:105AB0000A2100E010214FF0000B00910BE01021B3
:105AC0004FF0000B44F004040827009103E0082085
:105AD0004FF0000B0090C4F30252022A05D058F890
:105AE000040B0021032A08D008E008F1070020F089
:105AF0000702F2E80201904603E080B2042A00D1D6
:105B0000C0B24FF0000922072AD53278702A07D098
:105B1000DDF800C08CF0100C5CEA0B0C05D00EE038
:105B200040228DF80420012208E050EA010306D04B
:105B300030238DF804308DF8052002229146009B19
:105B400083F0080353EA0B030AD150EA010201D1A2
:105B5000620705D530228DF804204FF001097F1E21
:105B60003278582A04D039A20C920CAA02920BE087
:105B70003BA2F9E75B46009AFCF7BEFC0C9B9B5CE2
:105B8000029A521E0292137050EA0102F2D1029858
:105B900004A9081A00F1200B600702D524F4803410
:105BA00000E001275F4502DDA7EB0B0000E00020CD
:105BB00000EB0B01009003984944401A0390E00366
:105BC00006D453462146179A039800F0A9F90544D4
:105BD000002706E001A85246C05D179990476D1C4A
:105BE0007F1C4F45F6DBE0030CD553462146179A40
:105BF000039800F095F9054404E0302052461799C7
:105C000090476D1C0099481E00900029F5DC08E0C3
:105C10000298029952460078491C029117999047C0
:105C20006D1CBBF10001ABF1010BF1DC5BE100F09D
:105C300065F90544761C307800287FF40DAE19B064
:105C40002846BDE8F08F00000928010030313233CA
:105C500034353637383961626364656600000000A8
:105C60003031323334353637383941424344454692
:105C700000000000600700D4062708F1070020F0AC
:105C80000700F0E80223804603F0004C5FEA0C00B6
:105C900001D097A009E0200501D596A005E0E00716
:105CA00001D095A001E0AFF24C001390307823F0C2
:105CB000004365280CD006DC452809D046281DD0B5
:105CC00047287FD13BE0662818D067287AD136E094
:105CD0000021112F01DB112000E0781CCDE900012B
:105CE00004A90CA8FFF7EEFCDDE90D010C9A4FF0BA
:105CF000000B07F10109109200914EE04FF00040B7
:105D00000097CDE9011004A90CA8FFF7DBFCDDE941
:105D10000D020C9B0F994FF0000B914610930092CF
:105D200011B9791C00EB0109B7EB090003D4C0F1EC
:105D3000FF3B07F10109A9EB0700019042E0012FA9
:105D400000DA01270021112F01DD112000E0384683
:105D5000CDE9000104A90CA8FFF7B4FCDDE90D01B1
:105D60000C9A00914FF0000BB946109221070FD406
:105D7000009A4A4503DA914601E0A9F10109B9F117
:105D8000010F05DD109AA9F10101515C3029F4D011
:105D9000B84202DA10F1040F03DA0121CDE9011053
:105DA00010E0002803DC8344A9EB000102E0411C61
:105DB000494500DD8946A0EB0B00401C01904FF0E7
:105DC00000400290200705D40198484502DB4FF0BF
:105DD000FF30019000208DF84B0002980DF14B0729
:105DE000B0F1004F25D002200C902B200D9002988E
:105DF00000280CDA404202902D200D9007E00A2185
:105E00000298FCF763FB3031029007F8011D0C99F2
:105E1000481E0C900029F2DC02980028EFD1791E70
:105E20000D980870307800F0200040F0450007F829
:105E3000020D11A8C01BC01D02901398007800B17C
:105E4000012000EB0901019801EBE0710298014487
:105E50000398401A401E0390E00306D4534621469F
:105E6000179A039800F05CF805441398007818B16D
:105E70005246179990476D1CE00323D5534621469F
:105E8000179A039800F04CF805441BE0BBF1000F93
:105E900007DB0098584504DD1098179910F80B009F
:105EA00001E0179930205246904701980BF1010B01
:105EB000401E05F10105019004D12E20524617998C
:105EC00090476D1CB9F10001A9F10109DEDC05E084
:105ED00017F8010B5246179990476D1C0299481EFE
:105EE00002900029F4DC53462146179A03989EE657
:105EF0002D0000002B000000200000002DE9F041E3
:105F0000044600251E461746880404D405E0394699
:105F10002020B0476D1C641EF9D52846BDE8F081ED
:105F20002DE9F041044600251E469046C80301D5E0
:105F3000302700E02027880404D505E04146384694
:105F4000B0476D1C641EF9D52846BDE8F0810146B6
:105F500042F228324A434FF0E0235A6100229A610C
:105F60001A46126942F001021A6100BF4FF0E022A6
:105F7000106900F001021AB100F48032002AF5D055
:105F80004FF0E022126922F001024FF0E0231A6183
:105F900000229A617047000010B50A46002104E013
:105FA000491C084B994200D905E0074B1B8803F0B8
:105FB0004003002BF4D000BFC3B2034C241D238048
:105FC00010BD0000400D030000380140FDF79AFEAF
:105FD000FEF706F9FEF740FF4FF4E13000F038F825
:105FE00012A0FFF74FFBFEF783F8FEF7C3FE642015
:105FF000FFF7ADFFFCF774FC00231A4607210120D0
:10600000FCF73CFDFEF762FDFEF7A0FC00F014F883
:106010000BE00848007820B1002006490870FFF71F
:106020000BFAFEF779FDFCF725FDF2E742310D0A88
:10603000000000002C00002004484FF0E0214861DF
:10604000002088610120086170470000FEFFFF000A
:1060500010B586B00446012144F20400FEF770F941
:106060004FF40070ADF8140003208DF816001820CE
:106070008DF8170005A91C48FDF76EFD4FF48060F0
:10608000ADF8140004208DF8170005A91648FDF797
:1060900063FD25208DF8000003208DF801008DF8A8
:1060A000020001208DF803006846FEF7B9F801945C
:1060B0000020ADF80800ADF80A00ADF80C00ADF80E
:1060C00010000C20ADF80E0001A90848FFF752FAA5
:1060D000012240F225510548FFF726FA0121034825
:1060E000FFF7ECF906B010BD000801400038014090
:1060F0000002060104030500000010001F002F002D
:106100003F004E005E006E007D008D009C00AC00E4
:10611000BB00CB00DA00E900F900080117012601F5
:10612000350144015301610170017F018D019C0122
:10613000AA01B801C601D401E201EF01FD010A0282
:106140001802250232023F024C0258026502710217
:106150007D0289029502A102AD02B802C302CE02FD
:10616000D902E402EE02F80203030C031603200333
:10617000290332033B0344034C0355035D036503CA
:106180006C0374037B03820389038F0396039C03D0
:10619000A203A703AD03B203B703BC03C003C50347
:1061A000C903CC03D003D303D603D903DC03DE0336
:1061B000E003E203E403E503E603E703E803E8039F
:1061C000E803000075617274203131353230302EB1
:1061D0002068656C70207C2072207C2073706420A5
:1061E0007C20666F726365207C20706F73207C203A
:1061F0006377207C20636377207C2070207C207371
:106200006574202E2E2E0D0A0000000063616C20A4
:1062100033323035422070703D372075616C6967CC
:106220006E3D31383030206E3D2575206B703D2538
:10623000642075713D256420646561643D2564209A
:10624000676B703D2564206775713D256420737010
:10625000643D25642076656C3D256420663D25649B
:106260002025730D0A00000088620008000000204D
:106270003C000000A4560008C46200083C00002056
:10628000AC050000B4560008000000000102030441
:1062900001020304060708090204060800000000C2
:1062A00000000000000000000000000000000000EE
:1062B00000000000000000000000000000000000DE
:0462C00000000000DA
:04000005080020EDE2
:00000001FF
